:100000000C9434000C94AD000C94B7000C9449008F
:100010000C9449000C9449000C9449000C9449003C
:100020000C9449000C9449000C9449000C9449002C
:100030000C9449000C9449000C9449000C9449001C
:100040000C9449000C9449000C9449000C9449000C
:100050000C944900540057005A005D006000630092
:10006000660069006C006F0011241FBECFE5D4E06C
:10007000DEBFCDBF10E0A0E6B0E0EAEDF1E002C0E7
:1000800005900D92A436B107D9F70E94C1000C94D7
:10009000EB000C94000090E08A30910518F5FC010B
:1000A000E65DFF4F0C94E5008FEB85BB1DC086E835
:1000B00085BB1AC08BED85BB17C08FEC85BB14C008
:1000C00086EE85BB11C08DEE85BB0EC08DEF85BB66
:1000D0000BC087E885BB08C08FEF85BB05C08FEEDE
:1000E00085BB02C089EF85BB613041F018F06230FA
:1000F00049F00CC0979A9698959808959798969A73
:100100009598089597989698959A0895000008955F
:10011000CF93DF93C82FD62F842F60E00E944B002F
:1001200087EE93E00197F1F700C0000061E08D2FAA
:100130000E944B0087EE93E00197F1F700C00000AA
:1001400062E08C2F0E944B0087EE93E00197F1F75D
:1001500000C00000DF91CF9108951F920F920FB65B
:100160000F9211240F900FBE0F901F9018951F92A1
:100170000F920FB60F9211240F900FBE0F901F9089
:1001800018950E94D700C0E6D0E082990AC0949AE0
:1001900088818F5F88838FE097E20197F1F700C035
:1001A0000000488169818A810E948800EECF1ABAD6
:1001B0008FEF8BBB17BA88BB8FE784BB80E885BB0A
:1001C00080EF81BB8FE082BB0895EE0FFF1F05908B
:0A01D000F491E02D0994F894FFCF9C
:0401DA000005070015
:00000001FF
