:100000000C9434000C94BE000C94C8000C943E0078
:100010000C943E000C943E000C943E000C943E0068
:100020000C943E000C943E000C943E000C943E0058
:100030000C943E000C943E000C943E000C943E0048
:100040000C943E000C943E000C943E000C943E0038
:100050000C943E0049004C004F00520055005800DF
:100060005B005E006100640011241FBECFE5D4E098
:10007000DEBFCDBF0E94D2000C940D010C94000095
:1000800090E08A30910518F5FC01E65DFF4F0C9475
:1000900007018FEB85BB1DC086E885BB1AC08BEDC1
:1000A00085BB17C08FEC85BB14C086EE85BB11C025
:1000B0008DEE85BB0EC08DEF85BB0BC087E885BB81
:1000C00008C08FEF85BB05C08FEE85BB02C089EFEE
:1000D00085BB613041F018F0623049F00CC0979A4E
:1000E0009698959808959798969A959808959798C0
:1000F0009698959A089500000895CF93DF93D82F8E
:10010000C9E28C9FC12D1124C295CF7062E08C2F63
:100110000E94400087EE93E00197F1F700C00000D5
:100120008D2F94E6C99F80191124CDEC8C9F812DD1
:10013000112461E08695869586950E94400087EEA1
:1001400093E00197F1F700C00000DC9FC12D11245E
:10015000C695C695C695CC0F8C2F880F880FC80FF3
:1001600060E08D2F8C1B0E94400087EE93E001978A
:10017000F1F700C00000DF91CF9108951F920F9218
:100180000FB60F9211240F900FBE0F901F9018956D
:100190001F920F920FB60F9211240F900FBE0F9067
:1001A0001F9018950E94F900C0E08C2F0E947D00DE
:1001B00082990AC0CF5F2FEF82E597E021508040FF
:1001C0009040E1F700C000008399EFCFCC2379F095
:1001D0002FEF89E698E1215080409040E1F700C080
:1001E0000000C1508C2F0E947D00C111F1CF949A64
:1001F000DCCF1ABA8FEF8BBB17BA88BB8FE784BBF3
:1002000080E885BB80EF81BB8FE082BB0895EE0F55
:0E021000FF1F0590F491E02D0994F894FFCFA4
:00000001FF
