:100000000C942A000C9447000C9447000C94470071
:100010000C9447000C9447000C9449000C94470042
:100020000C9447000C9447000C9447000C94470034
:100030000C9447000C9447000C9447000C94470024
:100040000C9447000C9447000C9447000C94470014
:100050000C94470011241FBECFE5D4E0DEBFCDBF16
:1000600010E0A0E6B0E0ECE9F2E002C005900D92ED
:10007000AA36B107D9F720E0AAE6B0E001C01D9288
:10008000A237B207E1F70E94EF000C944C010C94E8
:1000900000001F920F920FB60F9211245F936F937F
:1000A0007F938F939F93AF93BF93EF93FF93809131
:1000B0006C00882329F080916D0090916E0004C03F
:1000C00080916F009091700080936B0082B38F706D
:1000D00082BB80916A008130D1F030F0823051F1E2
:1000E000833009F442C057C080916B0090E060E11A
:1000F00077E20E94240168EE73E00E942401FB0174
:10010000E05AFF4F8081809585BB979A44C08091CB
:100110006B0090E068EE73E00E94240164E670E0FA
:100120000E942401FB01E05AFF4F8081809585BB2E
:10013000969A31C0E0916B0089E2E89F812D1124ED
:1001400082958F7094E6899FE01911248DECE89FC9
:10015000E12D1124E695E695E695F0E0E05AFF4F93
:100160008081809585BB959A16C0E0916B008DECDF
:10017000E89F812D1124869586958695880F982F66
:10018000990F990F890FE81BF0E0E05AFF4F80812B
:10019000809585BB949A80916A008F5F80936A00F6
:1001A000843010F010926A00FF91EF91BF91AF91EF
:1001B0009F918F917F916F915F910F900FBE0F90E4
:1001C0001F90189582B38F7082BB2FEF82E597E066
:1001D000215080409040E1F700C0000008950E9447
:1001E0001601C1E01EC082990DC00E94E20010926B
:1001F0006C002FEF82E597E0215080409040E1F7BE
:1002000000C0000083990DC00E94E200C0936C0002
:100210002FEF82E597E0215080409040E1F700C049
:100220000000809171008823F1F2FBCF1ABA8FEFA2
:100230008BBB17BA88BB8FE784BB80E885BB80EF98
:1002400081BB8FE082BB089597FB072E16F40094C4
:1002500007D077FD09D00E94380107FC05D03EF495
:10026000909581959F4F0895709561957F4F089562
:10027000AA1BBB1B51E107C0AA1FBB1FA617B707CC
:1002800010F0A61BB70B881F991F5A95A9F78095E8
:0C0290009095BC01CD010895F894FFCFBB
:0A029C00BF86DBCFE6EDFD87FFEF24
:00000001FF
