:100000000C942A000C9447000C9447000C94470071
:100010000C94F3000C9447000C9449000C94470096
:100020000C9447000C9447000C9447000C94470034
:100030000C9447000C9447000C9447000C94470024
:100040000C9447000C9447000C9447000C940D014D
:100050000C94470011241FBECFE5D4E0DEBFCDBF16
:1000600010E0A0E6B0E0E8E2F8E002C005900D92F2
:10007000AE36B107D9F720E0AEE6B0E001C01D9280
:10008000A737B207E1F70E9471030C9412040C9495
:1000900000001F920F920FB60F9211242F933F93DF
:1000A0005F936F937F938F939F93AF93BF93EF93E0
:1000B000FF93CF93DF93CDB7DEB72597DEBFCDBFDC
:1000C00082B38F7082BB80E197E29A8389831D821D
:1000D0009D8180916E009817B0F429813A81ADEC32
:1000E000BCEC0E9403049695879596958795969506
:1000F00087959A8389838D818F5F8D839D81809180
:100100006E00981750F329813A81ADECBCEC0E9447
:1001100003049695879596958795969587959C83E4
:100120008B8380916F008130B9F018F0823039F103
:100130002DC0809174009091750069817A812B8126
:100140003C810E94EF03B9010E94EF03FB01EC59CF
:10015000FF4F80818BBB1AC0809172009091730019
:1001600069817A812B813C810E94EF03B9010E9451
:10017000EF03FB01EC59FF4F80818BBB07C0E0917F
:100180006E00F0E0E05AFF4F80818BBB20916E0043
:1001900032B32C5F81E090E002C0880F991F2A954E
:1001A000E2F7832B82BB80916E008F5F80936E009D
:1001B000843010F010926E000F900F900F900F90FF
:1001C0000F90DF91CF91FF91EF91BF91AF919F91F0
:1001D0008F917F916F915F913F912F910F900FBE03
:1001E0000F901F9018951F920F920FB60F92112427
:1001F0008F93809171008F5F809371008F3138F001
:1002000010927100809170008F5F809370008F91C9
:100210000F900FBE0F901F9018951F920F920FB660
:100220000F9211248F939F9380917200909173008D
:10023000892B51F0809172009091730001979093F7
:1002400073008093720017C08091740090917500C4
:10025000892B81F0809174009091750001979093A3
:1002600075008093740087EE93E090937300809301
:10027000720001C0C09A9F918F910F900FBE0F9096
:100280001F901895829BFECF839BFCCF33E022E02A
:1002900091E092C0829B02C083998EC04FEF56E7D7
:1002A00081E0415050408040E1F700C00000829959
:1002B0002EC0839B2CC0109271001092700089B7E1
:1002C000806489BF829904C0809170008230D0F32D
:1002D00089B78F7B89BF809170008230A8F410921B
:1002E0006F0089B78F7E89BF82B38F7082BB4FEF5B
:1002F00051EE84E0415050408040E1F700C00000E2
:1003000089B7806189BF4FC0909376004CC0829BB3
:100310002EC083992CC0109271001092700089B782
:10032000806489BF839904C0809170008230D0F3CB
:1003300089B78F7B89BF809170008230A8F4909339
:100340006F0089B78F7E89BF82B38F7082BB4FEFFA
:1003500051EE84E0415050408040E1F700C0000081
:1003600089B7806189BF1FC0209376001CC0829925
:100370001AC0839918C0109271001092700089B74A
:10038000806489BF829906C0839904C080917000FF
:100390008230C0F389B78F7B89BF80917000823033
:1003A00010F0309376004FEF56E781E04150504017
:1003B0008040E1F700C0000080917600882309F4B6
:1003C00069CF0895FA0160936F0028EE33E03BBDDA
:1003D0002ABD829BFECF839BFCCF2FEF36E791E0B7
:1003E000215030409040E1F700C0000010927100B1
:1003F0001092700099B7906499BF63C0909170009B
:10040000953010F01092760082992CC010927000F6
:1004100020813181232B31F020813181215031091C
:1004200031832083AFEFB1EE24E0A150B0402040F3
:10043000E1F700C00000829944C010927000208152
:100440003181232B31F020813181215031093183D9
:100450002083AFE1BEE41197F1F700C00000829B5A
:10046000ECCF2FC083992DC0109270002081318174
:10047000203D374030F4208131812F5F3F4F318361
:1004800020832FEF31EE94E0215030409040E1F78F
:1004900000C00000839915C0109270002081318146
:1004A000203D374030F4208131812F5F3F4F318331
:1004B0002083AFE1BEE41197F1F700C00000839BF9
:1004C000EBCF90917600981709F498CF89B78F7B7E
:1004D00089BF84EF91E09BBD8ABD089544E750E059
:1004E00060E081E00E94E201089542E750E061E0AF
:1004F00082E00E94E201089592E090936F0028EE5E
:1005000033E03BBD2ABD829BFECF839BFCCF2FEF08
:1005100036E741E0215030404040E1F700C00000A4
:10052000109271001092700099B7906499BF24E006
:1005300040C090917000953010F010927600829932
:1005400005C02093760080936F0033C0839931C03B
:100550001092760080936F0099B79F7E99BF92B3F7
:100560009F7092BB9FEF31EE44E09150304040408D
:10057000E1F700C0000099B7906199BF9FEF31EE9D
:1005800044E0915030404040E1F700C0000099B78E
:100590009F7E99BF92B39F7092BB9FEF31EE44E074
:1005A000915030404040E1F700C0000099B79061A1
:1005B00099BF90917600933009F4BBCF84EF91E01E
:1005C0009BBD8ABD89B78F7B89BF08950E94A60312
:1005D00010926F0091E07FC0829B02C083997BC024
:1005E0002FEF36E781E0215030408040E1F700C036
:1005F0000000829917C0839B15C010926F0089B7C5
:100600008F7E89BF82B38F7082BB2FEF31EE84E083
:10061000215030408040E1F700C0000089B7806180
:1006200089BF50C0829B17C0839915C090936F00FB
:1006300089B78F7E89BF82B38F7082BB2FEF31EE77
:1006400084E0215030408040E1F700C0000089B7CD
:10065000806189BF37C0829935C0839933C01092B9
:1006600071001092700089B7806489BF829906C0BA
:10067000839904C0809170008230C0F389B78F7B6A
:1006800089BF809170008230E8F01092760083B7C5
:100690008B7F83BF83B78D7F83BF83B78E7F83BFFD
:1006A00089B78F7E89BF82B38F7082BB2FEF31EE07
:1006B00084E0215030408040E1F700C0000089B75D
:1006C000806189BF2FEF36E781E0215030408040C4
:1006D000E1F700C0000080917600843009F47CCFFF
:1006E00008950E9498030E94BC030E94DB03789443
:1006F00080917600823089F028F4882341F081309F
:1007000049F0F6CF833061F0843079F0F1CF0E9468
:100710004201EECF0E946E02EBCF0E947502E8CF3D
:1007200080916F000E947C02E3CF0E94E602E0CF3E
:100730008FEF8ABB1BBA91E097BB9EEF98BB14BAB0
:1007400085BB80EF81BB8FE082BB089512BE89B765
:10075000826089BF8DE78CBF83B7886083BF83B712
:100760008F7B83BF83B78B7F83BF83B7826083BF59
:1007700083B7816083BF08951DBC1CBC89B78061AD
:1007800089BF84EF91E09BBD8ABD8EB58F7E8EBD03
:100790008EB588608EBD8FB58D7F8FBD8FB58E7FF6
:1007A0008FBD8EB58B7F8EBD8EB582608EBD8EB5B2
:1007B00081608EBD089514BC89B78F7B89BF85B5D4
:1007C000877F85BD85B58F7B85BD85B5846085BDFB
:1007D00085B5826085BD85B5816085BD0895AA1BFC
:1007E000BB1B51E107C0AA1FBB1FA617B70710F01C
:1007F000A61BB70B881F991F5A95A9F7809590954E
:10080000BC01CD010895A29FB001B39FC001A39F79
:10081000700D811D1124911DB29F700D811D112439
:08082000911D0895F894FFCF2B
:0E082800B90000CFBF86DBCFE6EDFD87FFEF06
:00000001FF
