:100000000C942A000C9447000C9447000C94470071
:100010000C94F3000C9447000C9449000C94470096
:100020000C9447000C9447000C9447000C94470034
:100030000C9447000C9447000C9447000C94470024
:100040000C9447000C9447000C9447000C94470014
:100050000C94470011241FBECFE5D4E0DEBFCDBF16
:1000600010E0A0E6B0E0EEEDF3E002C005900D92E6
:10007000A237B107D9F720E0A2E7B0E001C01D9296
:10008000A737B207E1F70E940D010C94ED010C9423
:1000900000001F920F920FB60F9211242F933F93DF
:1000A0005F936F937F938F939F93AF93BF93EF93E0
:1000B000FF93CF93DF93CDB7DEB72597DEBFCDBFDC
:1000C00082B38F7082BB80E197E29A8389831D821D
:1000D0009D81809172009817B0F429813A81ADEC2E
:1000E000BCEC0E94DE01969587959695879596952E
:1000F00087959A8389838D818F5F8D839D81809180
:100100007200981750F329813A81ADECBCEC0E9443
:10011000DE019695879596958795969587959C830C
:100120008B83809173008130B9F018F0823039F1FF
:100130002DC0809170009091710069817A812B812E
:100140003C810E94CA01B9010E94CA01FB01EC591D
:10015000FF4F80818BBB1AC080916E0090916F0021
:1001600069817A812B813C810E94CA01B9010E9478
:10017000CA01FB01EC59FF4F80818BBB07C0E091A6
:100180007200F0E0E05AFF4F80818BBB209172003B
:1001900032B32C5F81E090E002C0880F991F2A954E
:1001A000E2F7832B82BB809172008F5F8093720095
:1001B000843010F0109272000F900F900F900F90FB
:1001C0000F90DF91CF91FF91EF91BF91AF919F91F0
:1001D0008F917F916F915F913F912F910F900FBE03
:1001E0000F901F9018951F920F920FB60F92112427
:1001F0008F93809175008F5F809375008F3138F0F9
:1002000010927500809174008F5F809374008F91BD
:100210000F900FBE0F901F9018950E9489010E94A9
:1002200097010E94B601789491E022E06DC0829916
:1002300030C0109275001092740089B7806489BF35
:10024000829BFECF89B78F7B89BF809174008230FB
:10025000A8F41092730089B78F7E89BF82B38F7024
:1002600082BB3FEF41EE84E0315040408040E1F7F7
:1002700000C0000089B7806189BF02C090937600FA
:100280003FEF41EE84E0315040408040E1F700C054
:100290000000839939C03FEF41EE84E03150404087
:1002A0008040E1F700C000001092750010927400C9
:1002B00089B7806489BF8399FECF89B78F7B89BF57
:1002C000809174008230A8F49093730089B78F7E78
:1002D00089BF82B38F7082BB3FEF41EE84E0315023
:1002E00040408040E1F700C0000089B7806189BFCD
:1002F00002C0209376003FEF41EE84E03150404051
:100300008040E1F700C00000809176008111FCCFB1
:100310008ECF8FEF8ABB1BBA17BA88BB8FE784BB1F
:1003200080E885BB80EF81BB8FE082BB08951DBC58
:100330001CBC89B7806189BF84EF91E09BBD8ABDF9
:100340008EB58F7E8EBD8EB588608EBD8FB58D7F4C
:100350008FBD8FB58E7F8FBD8EB58B7F8EBD8EB5D9
:1003600082608EBD8EB581608EBD089514BC89B744
:100370008F7B89BF85B5877F85BD85B58F7B85BD23
:1003800085B5846085BD85B5826085BD85B5816094
:1003900085BD0895AA1BBB1B51E107C0AA1FBB1F47
:1003A000A617B70710F0A61BB70B881F991F5A9501
:1003B000A9F780959095BC01CD010895A29FB00149
:1003C000B39FC001A39F700D811D1124911DB29F89
:0E03D000700D811D1124911D0895F894FFCF2A
:1003DE00890000CFBF86DBCFE6EDFD87FFEF2E163F
:0203EE00D20437
:00000001FF
